{
  "abi": [
    {
      "inputs": [
        {
          "internalType": "string",
          "name": "_baseURI",
          "type": "string"
        },
        {
          "internalType": "bytes32",
          "name": "_merkleRoot",
          "type": "bytes32"
        }
      ],
      "stateMutability": "nonpayable",
      "type": "constructor"
    },
    {
      "inputs": [],
      "name": "AlreadyClaimed",
      "type": "error"
    },
    {
      "inputs": [],
      "name": "JamSaleNotActive",
      "type": "error"
    },
    {
      "inputs": [],
      "name": "MintedOut",
      "type": "error"
    },
    {
      "inputs": [],
      "name": "NotAuthorized",
      "type": "error"
    },
    {
      "inputs": [],
      "name": "NotEnoughFunds",
      "type": "error"
    },
    {
      "inputs": [],
      "name": "NotJamListed",
      "type": "error"
    },
    {
      "inputs": [],
      "name": "PublicSaleNotActive",
      "type": "error"
    },
    {
      "anonymous": false,
      "inputs": [
        {
          "indexed": true,
          "internalType": "address",
          "name": "owner",
          "type": "address"
        },
        {
          "indexed": true,
          "internalType": "address",
          "name": "spender",
          "type": "address"
        },
        {
          "indexed": true,
          "internalType": "uint256",
          "name": "id",
          "type": "uint256"
        }
      ],
      "name": "Approval",
      "type": "event"
    },
    {
      "anonymous": false,
      "inputs": [
        {
          "indexed": true,
          "internalType": "address",
          "name": "owner",
          "type": "address"
        },
        {
          "indexed": true,
          "internalType": "address",
          "name": "operator",
          "type": "address"
        },
        {
          "indexed": false,
          "internalType": "bool",
          "name": "approved",
          "type": "bool"
        }
      ],
      "name": "ApprovalForAll",
      "type": "event"
    },
    {
      "anonymous": false,
      "inputs": [
        {
          "indexed": true,
          "internalType": "address",
          "name": "user",
          "type": "address"
        },
        {
          "indexed": true,
          "internalType": "address",
          "name": "newOwner",
          "type": "address"
        }
      ],
      "name": "OwnerUpdated",
      "type": "event"
    },
    {
      "anonymous": false,
      "inputs": [
        {
          "indexed": true,
          "internalType": "address",
          "name": "from",
          "type": "address"
        },
        {
          "indexed": true,
          "internalType": "address",
          "name": "to",
          "type": "address"
        },
        {
          "indexed": true,
          "internalType": "uint256",
          "name": "id",
          "type": "uint256"
        }
      ],
      "name": "Transfer",
      "type": "event"
    },
    {
      "inputs": [],
      "name": "MAX_SUPPLY",
      "outputs": [
        {
          "internalType": "uint256",
          "name": "",
          "type": "uint256"
        }
      ],
      "stateMutability": "view",
      "type": "function"
    },
    {
      "inputs": [
        {
          "internalType": "address",
          "name": "spender",
          "type": "address"
        },
        {
          "internalType": "uint256",
          "name": "id",
          "type": "uint256"
        }
      ],
      "name": "approve",
      "outputs": [],
      "stateMutability": "nonpayable",
      "type": "function"
    },
    {
      "inputs": [
        {
          "internalType": "address",
          "name": "owner",
          "type": "address"
        }
      ],
      "name": "balanceOf",
      "outputs": [
        {
          "internalType": "uint256",
          "name": "",
          "type": "uint256"
        }
      ],
      "stateMutability": "view",
      "type": "function"
    },
    {
      "inputs": [
        {
          "internalType": "uint256",
          "name": "tokenId",
          "type": "uint256"
        }
      ],
      "name": "burn",
      "outputs": [],
      "stateMutability": "nonpayable",
      "type": "function"
    },
    {
      "inputs": [],
      "name": "flipJamSaleState",
      "outputs": [],
      "stateMutability": "nonpayable",
      "type": "function"
    },
    {
      "inputs": [],
      "name": "flipPublicSaleState",
      "outputs": [],
      "stateMutability": "nonpayable",
      "type": "function"
    },
    {
      "inputs": [
        {
          "internalType": "uint256",
          "name": "",
          "type": "uint256"
        }
      ],
      "name": "getApproved",
      "outputs": [
        {
          "internalType": "address",
          "name": "",
          "type": "address"
        }
      ],
      "stateMutability": "view",
      "type": "function"
    },
    {
      "inputs": [
        {
          "internalType": "address",
          "name": "",
          "type": "address"
        },
        {
          "internalType": "address",
          "name": "",
          "type": "address"
        }
      ],
      "name": "isApprovedForAll",
      "outputs": [
        {
          "internalType": "bool",
          "name": "",
          "type": "bool"
        }
      ],
      "stateMutability": "view",
      "type": "function"
    },
    {
      "inputs": [
        {
          "internalType": "bytes32[]",
          "name": "_merkleProof",
          "type": "bytes32[]"
        }
      ],
      "name": "jamListMint",
      "outputs": [],
      "stateMutability": "payable",
      "type": "function"
    },
    {
      "inputs": [],
      "name": "jamSaleActive",
      "outputs": [
        {
          "internalType": "bool",
          "name": "",
          "type": "bool"
        }
      ],
      "stateMutability": "view",
      "type": "function"
    },
    {
      "inputs": [],
      "name": "merkleRoot",
      "outputs": [
        {
          "internalType": "bytes32",
          "name": "",
          "type": "bytes32"
        }
      ],
      "stateMutability": "view",
      "type": "function"
    },
    {
      "inputs": [],
      "name": "mintPrice",
      "outputs": [
        {
          "internalType": "uint256",
          "name": "",
          "type": "uint256"
        }
      ],
      "stateMutability": "view",
      "type": "function"
    },
    {
      "inputs": [],
      "name": "name",
      "outputs": [
        {
          "internalType": "string",
          "name": "",
          "type": "string"
        }
      ],
      "stateMutability": "view",
      "type": "function"
    },
    {
      "inputs": [],
      "name": "owner",
      "outputs": [
        {
          "internalType": "address",
          "name": "",
          "type": "address"
        }
      ],
      "stateMutability": "view",
      "type": "function"
    },
    {
      "inputs": [
        {
          "internalType": "uint256",
          "name": "id",
          "type": "uint256"
        }
      ],
      "name": "ownerOf",
      "outputs": [
        {
          "internalType": "address",
          "name": "owner",
          "type": "address"
        }
      ],
      "stateMutability": "view",
      "type": "function"
    },
    {
      "inputs": [
        {
          "internalType": "address",
          "name": "",
          "type": "address"
        }
      ],
      "name": "publicClaimed",
      "outputs": [
        {
          "internalType": "bool",
          "name": "",
          "type": "bool"
        }
      ],
      "stateMutability": "view",
      "type": "function"
    },
    {
      "inputs": [],
      "name": "publicMint",
      "outputs": [],
      "stateMutability": "payable",
      "type": "function"
    },
    {
      "inputs": [],
      "name": "publicSaleActive",
      "outputs": [
        {
          "internalType": "bool",
          "name": "",
          "type": "bool"
        }
      ],
      "stateMutability": "view",
      "type": "function"
    },
    {
      "inputs": [
        {
          "internalType": "address",
          "name": "from",
          "type": "address"
        },
        {
          "internalType": "address",
          "name": "to",
          "type": "address"
        },
        {
          "internalType": "uint256",
          "name": "id",
          "type": "uint256"
        }
      ],
      "name": "safeTransferFrom",
      "outputs": [],
      "stateMutability": "nonpayable",
      "type": "function"
    },
    {
      "inputs": [
        {
          "internalType": "address",
          "name": "from",
          "type": "address"
        },
        {
          "internalType": "address",
          "name": "to",
          "type": "address"
        },
        {
          "internalType": "uint256",
          "name": "id",
          "type": "uint256"
        },
        {
          "internalType": "bytes",
          "name": "data",
          "type": "bytes"
        }
      ],
      "name": "safeTransferFrom",
      "outputs": [],
      "stateMutability": "nonpayable",
      "type": "function"
    },
    {
      "inputs": [
        {
          "internalType": "address",
          "name": "operator",
          "type": "address"
        },
        {
          "internalType": "bool",
          "name": "approved",
          "type": "bool"
        }
      ],
      "name": "setApprovalForAll",
      "outputs": [],
      "stateMutability": "nonpayable",
      "type": "function"
    },
    {
      "inputs": [
        {
          "internalType": "address",
          "name": "newOwner",
          "type": "address"
        }
      ],
      "name": "setOwner",
      "outputs": [],
      "stateMutability": "nonpayable",
      "type": "function"
    },
    {
      "inputs": [
        {
          "internalType": "address",
          "name": "_newBurner",
          "type": "address"
        }
      ],
      "name": "setPOTCBurner",
      "outputs": [],
      "stateMutability": "nonpayable",
      "type": "function"
    },
    {
      "inputs": [
        {
          "internalType": "uint256",
          "name": "_targetPrice",
          "type": "uint256"
        }
      ],
      "name": "setPrice",
      "outputs": [],
      "stateMutability": "nonpayable",
      "type": "function"
    },
    {
      "inputs": [
        {
          "internalType": "string",
          "name": "_uri",
          "type": "string"
        }
      ],
      "name": "setURI",
      "outputs": [],
      "stateMutability": "nonpayable",
      "type": "function"
    },
    {
      "inputs": [
        {
          "internalType": "bytes4",
          "name": "interfaceId",
          "type": "bytes4"
        }
      ],
      "name": "supportsInterface",
      "outputs": [
        {
          "internalType": "bool",
          "name": "",
          "type": "bool"
        }
      ],
      "stateMutability": "view",
      "type": "function"
    },
    {
      "inputs": [],
      "name": "symbol",
      "outputs": [
        {
          "internalType": "string",
          "name": "",
          "type": "string"
        }
      ],
      "stateMutability": "view",
      "type": "function"
    },
    {
      "inputs": [
        {
          "internalType": "uint256",
          "name": "_id",
          "type": "uint256"
        }
      ],
      "name": "tokenURI",
      "outputs": [
        {
          "internalType": "string",
          "name": "",
          "type": "string"
        }
      ],
      "stateMutability": "view",
      "type": "function"
    },
    {
      "inputs": [],
      "name": "totalSupply",
      "outputs": [
        {
          "internalType": "uint256",
          "name": "",
          "type": "uint256"
        }
      ],
      "stateMutability": "view",
      "type": "function"
    },
    {
      "inputs": [
        {
          "internalType": "address",
          "name": "from",
          "type": "address"
        },
        {
          "internalType": "address",
          "name": "to",
          "type": "address"
        },
        {
          "internalType": "uint256",
          "name": "id",
          "type": "uint256"
        }
      ],
      "name": "transferFrom",
      "outputs": [],
      "stateMutability": "nonpayable",
      "type": "function"
    },
    {
      "inputs": [
        {
          "internalType": "address",
          "name": "",
          "type": "address"
        }
      ],
      "name": "whitelistClaimed",
      "outputs": [
        {
          "internalType": "bool",
          "name": "",
          "type": "bool"
        }
      ],
      "stateMutability": "view",
      "type": "function"
    },
    {
      "inputs": [],
      "name": "withdraw",
      "outputs": [],
      "stateMutability": "nonpayable",
      "type": "function"
    }
  ],
  "bytecode": {
    "object": "0x60a060405267016345785d8a0000600755600f6008553480156200002257600080fd5b5060405162001ee438038062001ee483398101604081905262000045916200025f565b604080518082018252601881527f506172726f7473206f66207468652043617272696265616e0000000000000000602080830191825283518085019094526004845263504f544360e01b908401528151339391620000a79160009190620001a3565b508051620000bd906001906020840190620001a3565b5050600680546001600160a01b0319166001600160a01b0384169081179091556040519091506000907f8292fce18fa69edf4db7b94ea2e58241df0ae57f97e0a6c9b29067028bf92d76908290a350815162000121906009906020850190620001a3565b506080819052336000908152600360205260408120600f90555b600f8110156200019a5760008181526002602052604080822080546001600160a01b0319163390811790915590518392907fddf252ad1be2c89b69c2b068fc378daa952ba7f163c4a11628f55a4df523b3ef908290a46001016200013b565b50505062000380565b828054620001b19062000344565b90600052602060002090601f016020900481019282620001d5576000855562000220565b82601f10620001f057805160ff191683800117855562000220565b8280016001018555821562000220579182015b828111156200022057825182559160200191906001019062000203565b506200022e92915062000232565b5090565b5b808211156200022e576000815560010162000233565b634e487b7160e01b600052604160045260246000fd5b600080604083850312156200027357600080fd5b82516001600160401b03808211156200028b57600080fd5b818501915085601f830112620002a057600080fd5b815181811115620002b557620002b562000249565b604051601f8201601f19908116603f01168101908382118183101715620002e057620002e062000249565b81604052828152602093508884848701011115620002fd57600080fd5b600091505b8282101562000321578482018401518183018501529083019062000302565b82821115620003335760008484830101525b969092015195979596505050505050565b600181811c908216806200035957607f821691505b6020821081036200037a57634e487b7160e01b600052602260045260246000fd5b50919050565b608051611b41620003a36000396000818161034d0152610da20152611b416000f3fe6080604052600436106101e35760003560e01c80636817c76c11610102578063a10866ef11610095578063bc8893b411610064578063bc8893b41461056c578063c87b56dd1461058b578063db4bec44146105ab578063e985e9c5146105db57600080fd5b8063a10866ef146104e7578063a22cb465146104fc578063b5b1cd7c1461051c578063b88d4fde1461054c57600080fd5b806391b7f5ed116100d157806391b7f5ed1461048357806393018ba9146104a3578063953d5e21146104bd57806395d89b41146104d257600080fd5b80636817c76c1461040d57806370a08231146104235780637f7706d5146104435780638da5cb5b1461046357600080fd5b806326092b831161017a57806342842e0e1161014957806342842e0e1461039a57806342966c68146103ba57806356679f35146103da5780636352211e146103ed57600080fd5b806326092b83146103335780632eb4a7ab1461033b57806332cb6b0c1461036f5780633ccfd60b1461038557600080fd5b8063095ea7b3116101b6578063095ea7b3146102af57806313af4035146102cf57806318160ddd146102ef57806323b872dd1461031357600080fd5b806301ffc9a7146101e857806302fe53051461021d57806306fdde031461023f578063081812fc14610261575b600080fd5b3480156101f457600080fd5b50610208610203366004611586565b610616565b60405190151581526020015b60405180910390f35b34801561022957600080fd5b5061023d6102383660046115f3565b610668565b005b34801561024b57600080fd5b506102546106ac565b6040516102149190611665565b34801561026d57600080fd5b5061029761027c366004611698565b6004602052600090815260409020546001600160a01b031681565b6040516001600160a01b039091168152602001610214565b3480156102bb57600080fd5b5061023d6102ca3660046116c8565b61073a565b3480156102db57600080fd5b5061023d6102ea3660046116f2565b61081c565b3480156102fb57600080fd5b5061030560085481565b604051908152602001610214565b34801561031f57600080fd5b5061023d61032e36600461170d565b610892565b61023d610a59565b34801561034757600080fd5b506103057f000000000000000000000000000000000000000000000000000000000000000081565b34801561037b57600080fd5b5061030561022b81565b34801561039157600080fd5b5061023d610b38565b3480156103a657600080fd5b5061023d6103b536600461170d565b610bba565b3480156103c657600080fd5b5061023d6103d5366004611698565b610cad565b61023d6103e8366004611749565b610ceb565b3480156103f957600080fd5b50610297610408366004611698565b610e19565b34801561041957600080fd5b5061030560075481565b34801561042f57600080fd5b5061030561043e3660046116f2565b610e70565b34801561044f57600080fd5b5061023d61045e3660046116f2565b610ed3565b34801561046f57600080fd5b50600654610297906001600160a01b031681565b34801561048f57600080fd5b5061023d61049e366004611698565b610f1f565b3480156104af57600080fd5b50600a546102089060ff1681565b3480156104c957600080fd5b5061023d610f4e565b3480156104de57600080fd5b50610254610f8c565b3480156104f357600080fd5b5061023d610f99565b34801561050857600080fd5b5061023d6105173660046117be565b610fe3565b34801561052857600080fd5b506102086105373660046116f2565b600c6020526000908152604090205460ff1681565b34801561055857600080fd5b5061023d6105673660046117fa565b61104f565b34801561057857600080fd5b50600a5461020890610100900460ff1681565b34801561059757600080fd5b506102546105a6366004611698565b611137565b3480156105b757600080fd5b506102086105c63660046116f2565b600b6020526000908152604090205460ff1681565b3480156105e757600080fd5b506102086105f6366004611869565b600560209081526000928352604080842090915290825290205460ff1681565b60006301ffc9a760e01b6001600160e01b03198316148061064757506380ac58cd60e01b6001600160e01b03198316145b806106625750635b5e139f60e01b6001600160e01b03198316145b92915050565b6006546001600160a01b0316331461069b5760405162461bcd60e51b81526004016106929061189c565b60405180910390fd5b6106a7600983836114d7565b505050565b600080546106b9906118c2565b80601f01602080910402602001604051908101604052809291908181526020018280546106e5906118c2565b80156107325780601f1061070757610100808354040283529160200191610732565b820191906000526020600020905b81548152906001019060200180831161071557829003601f168201915b505050505081565b6000818152600260205260409020546001600160a01b03163381148061078357506001600160a01b038116600090815260056020908152604080832033845290915290205460ff165b6107c05760405162461bcd60e51b815260206004820152600e60248201526d1393d517d055551213d49256915160921b6044820152606401610692565b60008281526004602052604080822080546001600160a01b0319166001600160a01b0387811691821790925591518593918516917f8c5be1e5ebec7d5bd14f71427d1e84f3dd0314c0f7b2291e5b200ac8c7c3b92591a4505050565b6006546001600160a01b031633146108465760405162461bcd60e51b81526004016106929061189c565b600680546001600160a01b0319166001600160a01b03831690811790915560405133907f8292fce18fa69edf4db7b94ea2e58241df0ae57f97e0a6c9b29067028bf92d7690600090a350565b6000818152600260205260409020546001600160a01b038481169116146108e85760405162461bcd60e51b815260206004820152600a60248201526957524f4e475f46524f4d60b01b6044820152606401610692565b6001600160a01b0382166109325760405162461bcd60e51b81526020600482015260116024820152701253959053125117d49150d25412515395607a1b6044820152606401610692565b336001600160a01b038416148061096c57506001600160a01b038316600090815260056020908152604080832033845290915290205460ff165b8061098d57506000818152600460205260409020546001600160a01b031633145b6109ca5760405162461bcd60e51b815260206004820152600e60248201526d1393d517d055551213d49256915160921b6044820152606401610692565b6001600160a01b0380841660008181526003602090815260408083208054600019019055938616808352848320805460010190558583526002825284832080546001600160a01b03199081168317909155600490925284832080549092169091559251849392917fddf252ad1be2c89b69c2b068fc378daa952ba7f163c4a11628f55a4df523b3ef91a4505050565b600a54610100900460ff16610a81576040516331f423c160e21b815260040160405180910390fd5b336000908152600c602052604090205460ff1615610ab257604051630c8d9eab60e31b815260040160405180910390fd5b61022b6008546001610ac49190611912565b1115610ae357604051634237dcf160e11b815260040160405180910390fd5b600754341015610b0657604051631036b5ad60e31b815260040160405180910390fd5b336000818152600c60205260409020805460ff19166001179055600854610b2d919061116b565b600880546001019055565b6006546001600160a01b03163314610b625760405162461bcd60e51b81526004016106929061189c565b604051600090339047908381818185875af1925050503d8060008114610ba4576040519150601f19603f3d011682016040523d82523d6000602084013e610ba9565b606091505b5050905080610bb757600080fd5b50565b610bc5838383610892565b6001600160a01b0382163b1580610c6e5750604051630a85bd0160e11b8082523360048301526001600160a01b03858116602484015260448301849052608060648401526000608484015290919084169063150b7a029060a4016020604051808303816000875af1158015610c3e573d6000803e3d6000fd5b505050506040513d601f19601f82011682018060405250810190610c62919061192a565b6001600160e01b031916145b6106a75760405162461bcd60e51b815260206004820152601060248201526f155394d0519157d49150d2541251539560821b6044820152606401610692565b600d546001600160a01b03163314610cd85760405163ea8e4eb560e01b815260040160405180910390fd5b60088054600019019055610bb781611276565b600a5460ff16610d0e5760405163736c7ded60e11b815260040160405180910390fd5b336000908152600b602052604090205460ff1615610d3f57604051630c8d9eab60e31b815260040160405180910390fd5b600754341015610d6257604051631036b5ad60e31b815260040160405180910390fd5b6040516bffffffffffffffffffffffff193360601b166020820152600090603401604051602081830303815290604052805190602001209050610dc783837f000000000000000000000000000000000000000000000000000000000000000084611343565b610de457604051639db752f960e01b815260040160405180910390fd5b336000818152600b60205260409020805460ff19166001179055600854610e0b919061116b565b505060088054600101905550565b6000818152600260205260409020546001600160a01b031680610e6b5760405162461bcd60e51b815260206004820152600a6024820152691393d517d3525395115160b21b6044820152606401610692565b919050565b60006001600160a01b038216610eb75760405162461bcd60e51b815260206004820152600c60248201526b5a45524f5f4144445245535360a01b6044820152606401610692565b506001600160a01b031660009081526003602052604090205490565b6006546001600160a01b03163314610efd5760405162461bcd60e51b81526004016106929061189c565b600d80546001600160a01b0319166001600160a01b0392909216919091179055565b6006546001600160a01b03163314610f495760405162461bcd60e51b81526004016106929061189c565b600755565b6006546001600160a01b03163314610f785760405162461bcd60e51b81526004016106929061189c565b600a805460ff19811660ff90911615179055565b600180546106b9906118c2565b6006546001600160a01b03163314610fc35760405162461bcd60e51b81526004016106929061189c565b600a805461010060ff19821681900460ff16150261ffff19909116179055565b3360008181526005602090815260408083206001600160a01b03871680855290835292819020805460ff191686151590811790915590519081529192917f17307eab39ab6107e8899845ad3d59bd9653f200f220920489ca2b5937696c31910160405180910390a35050565b61105a858585610892565b6001600160a01b0384163b15806110f15750604051630a85bd0160e11b808252906001600160a01b0386169063150b7a02906110a29033908a90899089908990600401611947565b6020604051808303816000875af11580156110c1573d6000803e3d6000fd5b505050506040513d601f19601f820116820180604052508101906110e5919061192a565b6001600160e01b031916145b6111305760405162461bcd60e51b815260206004820152601060248201526f155394d0519157d49150d2541251539560821b6044820152606401610692565b5050505050565b606060096111448361135b565b6040516020016111559291906119b7565b6040516020818303038152906040529050919050565b6001600160a01b0382166111b55760405162461bcd60e51b81526020600482015260116024820152701253959053125117d49150d25412515395607a1b6044820152606401610692565b6000818152600260205260409020546001600160a01b03161561120b5760405162461bcd60e51b815260206004820152600e60248201526d1053149150511657d3525395115160921b6044820152606401610692565b6001600160a01b038216600081815260036020908152604080832080546001019055848352600290915280822080546001600160a01b0319168417905551839291907fddf252ad1be2c89b69c2b068fc378daa952ba7f163c4a11628f55a4df523b3ef908290a45050565b6000818152600260205260409020546001600160a01b0316806112c85760405162461bcd60e51b815260206004820152600a6024820152691393d517d3525395115160b21b6044820152606401610692565b6001600160a01b038116600081815260036020908152604080832080546000190190558583526002825280832080546001600160a01b031990811690915560049092528083208054909216909155518492907fddf252ad1be2c89b69c2b068fc378daa952ba7f163c4a11628f55a4df523b3ef908390a45050565b600082611351868685611464565b1495945050505050565b6060816000036113825750506040805180820190915260018152600360fc1b602082015290565b8160005b81156113ac578061139681611a71565b91506113a59050600a83611aa0565b9150611386565b60008167ffffffffffffffff8111156113c7576113c7611ab4565b6040519080825280601f01601f1916602001820160405280156113f1576020820181803683370190505b5090505b841561145c57611406600183611aca565b9150611413600a86611ae1565b61141e906030611912565b60f81b81838151811061143357611433611af5565b60200101906001600160f81b031916908160001a905350611455600a86611aa0565b94506113f5565b949350505050565b600081815b848110156114ce57600086868381811061148557611485611af5565b9050602002013590508083116114aa57600083815260208290526040902092506114bb565b600081815260208490526040902092505b50806114c681611a71565b915050611469565b50949350505050565b8280546114e3906118c2565b90600052602060002090601f016020900481019282611505576000855561154b565b82601f1061151e5782800160ff1982351617855561154b565b8280016001018555821561154b579182015b8281111561154b578235825591602001919060010190611530565b5061155792915061155b565b5090565b5b80821115611557576000815560010161155c565b6001600160e01b031981168114610bb757600080fd5b60006020828403121561159857600080fd5b81356115a381611570565b9392505050565b60008083601f8401126115bc57600080fd5b50813567ffffffffffffffff8111156115d457600080fd5b6020830191508360208285010111156115ec57600080fd5b9250929050565b6000806020838503121561160657600080fd5b823567ffffffffffffffff81111561161d57600080fd5b611629858286016115aa565b90969095509350505050565b60005b83811015611650578181015183820152602001611638565b8381111561165f576000848401525b50505050565b6020815260008251806020840152611684816040850160208701611635565b601f01601f19169190910160400192915050565b6000602082840312156116aa57600080fd5b5035919050565b80356001600160a01b0381168114610e6b57600080fd5b600080604083850312156116db57600080fd5b6116e4836116b1565b946020939093013593505050565b60006020828403121561170457600080fd5b6115a3826116b1565b60008060006060848603121561172257600080fd5b61172b846116b1565b9250611739602085016116b1565b9150604084013590509250925092565b6000806020838503121561175c57600080fd5b823567ffffffffffffffff8082111561177457600080fd5b818501915085601f83011261178857600080fd5b81358181111561179757600080fd5b8660208260051b85010111156117ac57600080fd5b60209290920196919550909350505050565b600080604083850312156117d157600080fd5b6117da836116b1565b9150602083013580151581146117ef57600080fd5b809150509250929050565b60008060008060006080868803121561181257600080fd5b61181b866116b1565b9450611829602087016116b1565b935060408601359250606086013567ffffffffffffffff81111561184c57600080fd5b611858888289016115aa565b969995985093965092949392505050565b6000806040838503121561187c57600080fd5b611885836116b1565b9150611893602084016116b1565b90509250929050565b6020808252600c908201526b15539055551213d49256915160a21b604082015260600190565b600181811c908216806118d657607f821691505b6020821081036118f657634e487b7160e01b600052602260045260246000fd5b50919050565b634e487b7160e01b600052601160045260246000fd5b60008219821115611925576119256118fc565b500190565b60006020828403121561193c57600080fd5b81516115a381611570565b6001600160a01b038681168252851660208201526040810184905260806060820181905281018290526000828460a0840137600060a0848401015260a0601f19601f85011683010190509695505050505050565b600081516119ad818560208601611635565b9290920192915050565b600080845481600182811c9150808316806119d357607f831692505b602080841082036119f257634e487b7160e01b86526022600452602486fd5b818015611a065760018114611a1757611a44565b60ff19861689528489019650611a44565b60008b81526020902060005b86811015611a3c5781548b820152908501908301611a23565b505084890196505b505050505050611a68611a57828661199b565b64173539b7b760d91b815260050190565b95945050505050565b600060018201611a8357611a836118fc565b5060010190565b634e487b7160e01b600052601260045260246000fd5b600082611aaf57611aaf611a8a565b500490565b634e487b7160e01b600052604160045260246000fd5b600082821015611adc57611adc6118fc565b500390565b600082611af057611af0611a8a565b500690565b634e487b7160e01b600052603260045260246000fdfea2646970667358221220339b82227b1d80d3563b050dbf80e845f165e240c85dacdd829f936743612baf64736f6c634300080d0033",
    "linkReferences": {}
  }
}